{
  "contractName": "ToDoList",
  "abi": [
    {
      "constant": true,
      "inputs": [],
      "name": "taskCount",
      "outputs": [
        {
          "internalType": "uint256",
          "name": "",
          "type": "uint256"
        }
      ],
      "payable": false,
      "stateMutability": "view",
      "type": "function"
    }
  ],
  "bytecode": "0x608060405260008055348015601357600080fd5b506080806100226000396000f3fe6080604052348015600f57600080fd5b506004361060285760003560e01c8063b6cb58a514602d575b600080fd5b60336045565b60408051918252519081900360200190f35b6000548156fea265627a7a72315820130d3945bd2a6ab88975882de51f1b664d5141e207d713b961d2a63298440dae64736f6c63430005100032",
  "source": "// SPDX-License-Identifier:MIT\npragma solidity >=0.5.0<0.9.0;\n\ncontract ToDoList{\n    uint public taskCount = 0;\n\n}\n",
  "sourcePath": "/Users/shanajames/Downloads/Work/Block Do/contracts/ToDoList.sol",
  "compiler": {
    "name": "solc",
    "version": "0.5.16+commit.9c3226ce.Emscripten.clang"
  },
  "schemaVersion": "3.4.6",
  "updatedAt": "2022-03-28T10:09:43.309Z",
  "networkType": "ethereum",
  "devdoc": {
    "methods": {}
  },
  "userdoc": {
    "methods": {}
  }
}